{
  "_format": "hh-sol-artifact-1",
  "contractName": "NFTAuction",
  "sourceName": "contracts/Auction.sol",
  "abi": [
    {
      "inputs": [],
      "stateMutability": "nonpayable",
      "type": "constructor"
    },
    {
      "anonymous": false,
      "inputs": [
        {
          "indexed": false,
          "internalType": "address",
          "name": "winner",
          "type": "address"
        },
        {
          "indexed": false,
          "internalType": "uint256",
          "name": "amount",
          "type": "uint256"
        }
      ],
      "name": "AuctionEnded",
      "type": "event"
    },
    {
      "anonymous": false,
      "inputs": [
        {
          "indexed": true,
          "internalType": "uint256",
          "name": "itemId",
          "type": "uint256"
        },
        {
          "indexed": true,
          "internalType": "address",
          "name": "nftContract",
          "type": "address"
        },
        {
          "indexed": true,
          "internalType": "uint256",
          "name": "tokenId",
          "type": "uint256"
        },
        {
          "indexed": false,
          "internalType": "address",
          "name": "seller",
          "type": "address"
        },
        {
          "indexed": false,
          "internalType": "address",
          "name": "owner",
          "type": "address"
        },
        {
          "indexed": false,
          "internalType": "uint256",
          "name": "price",
          "type": "uint256"
        },
        {
          "indexed": false,
          "internalType": "uint256",
          "name": "endTime",
          "type": "uint256"
        },
        {
          "indexed": false,
          "internalType": "bool",
          "name": "ended",
          "type": "bool"
        }
      ],
      "name": "AuctionItemCreated",
      "type": "event"
    },
    {
      "anonymous": false,
      "inputs": [
        {
          "indexed": false,
          "internalType": "uint256",
          "name": "tokenId",
          "type": "uint256"
        },
        {
          "indexed": false,
          "internalType": "address",
          "name": "bidder",
          "type": "address"
        },
        {
          "indexed": false,
          "internalType": "uint256",
          "name": "amount",
          "type": "uint256"
        }
      ],
      "name": "HighestBidIncreased",
      "type": "event"
    },
    {
      "inputs": [
        {
          "internalType": "uint256",
          "name": "itemId",
          "type": "uint256"
        }
      ],
      "name": "auctionEnd",
      "outputs": [],
      "stateMutability": "nonpayable",
      "type": "function"
    },
    {
      "inputs": [
        {
          "internalType": "uint256",
          "name": "itemId",
          "type": "uint256"
        }
      ],
      "name": "bid",
      "outputs": [],
      "stateMutability": "payable",
      "type": "function"
    },
    {
      "inputs": [
        {
          "internalType": "address",
          "name": "_nftContract",
          "type": "address"
        },
        {
          "internalType": "uint256",
          "name": "_tokenId",
          "type": "uint256"
        },
        {
          "internalType": "uint128",
          "name": "_price",
          "type": "uint128"
        },
        {
          "internalType": "uint256",
          "name": "_timeoutPeriod",
          "type": "uint256"
        }
      ],
      "name": "createAuctionItem",
      "outputs": [],
      "stateMutability": "payable",
      "type": "function"
    },
    {
      "inputs": [],
      "name": "fetchAuctionItems",
      "outputs": [
        {
          "components": [
            {
              "internalType": "uint256",
              "name": "itemId",
              "type": "uint256"
            },
            {
              "internalType": "address",
              "name": "nftContract",
              "type": "address"
            },
            {
              "internalType": "uint256",
              "name": "tokenId",
              "type": "uint256"
            },
            {
              "internalType": "address payable",
              "name": "seller",
              "type": "address"
            },
            {
              "internalType": "address payable",
              "name": "owner",
              "type": "address"
            },
            {
              "internalType": "address payable",
              "name": "highestBidder",
              "type": "address"
            },
            {
              "internalType": "uint256",
              "name": "highestBid",
              "type": "uint256"
            },
            {
              "internalType": "uint256",
              "name": "price",
              "type": "uint256"
            },
            {
              "internalType": "uint256",
              "name": "endTime",
              "type": "uint256"
            },
            {
              "internalType": "bool",
              "name": "ended",
              "type": "bool"
            }
          ],
          "internalType": "struct NFTAuction.AuctionItem[]",
          "name": "",
          "type": "tuple[]"
        }
      ],
      "stateMutability": "view",
      "type": "function"
    },
    {
      "inputs": [],
      "name": "fetchItemsCreated",
      "outputs": [
        {
          "components": [
            {
              "internalType": "uint256",
              "name": "itemId",
              "type": "uint256"
            },
            {
              "internalType": "address",
              "name": "nftContract",
              "type": "address"
            },
            {
              "internalType": "uint256",
              "name": "tokenId",
              "type": "uint256"
            },
            {
              "internalType": "address payable",
              "name": "seller",
              "type": "address"
            },
            {
              "internalType": "address payable",
              "name": "owner",
              "type": "address"
            },
            {
              "internalType": "address payable",
              "name": "highestBidder",
              "type": "address"
            },
            {
              "internalType": "uint256",
              "name": "highestBid",
              "type": "uint256"
            },
            {
              "internalType": "uint256",
              "name": "price",
              "type": "uint256"
            },
            {
              "internalType": "uint256",
              "name": "endTime",
              "type": "uint256"
            },
            {
              "internalType": "bool",
              "name": "ended",
              "type": "bool"
            }
          ],
          "internalType": "struct NFTAuction.AuctionItem[]",
          "name": "",
          "type": "tuple[]"
        }
      ],
      "stateMutability": "view",
      "type": "function"
    },
    {
      "inputs": [],
      "name": "fetchMyNFTs",
      "outputs": [
        {
          "components": [
            {
              "internalType": "uint256",
              "name": "itemId",
              "type": "uint256"
            },
            {
              "internalType": "address",
              "name": "nftContract",
              "type": "address"
            },
            {
              "internalType": "uint256",
              "name": "tokenId",
              "type": "uint256"
            },
            {
              "internalType": "address payable",
              "name": "seller",
              "type": "address"
            },
            {
              "internalType": "address payable",
              "name": "owner",
              "type": "address"
            },
            {
              "internalType": "address payable",
              "name": "highestBidder",
              "type": "address"
            },
            {
              "internalType": "uint256",
              "name": "highestBid",
              "type": "uint256"
            },
            {
              "internalType": "uint256",
              "name": "price",
              "type": "uint256"
            },
            {
              "internalType": "uint256",
              "name": "endTime",
              "type": "uint256"
            },
            {
              "internalType": "bool",
              "name": "ended",
              "type": "bool"
            }
          ],
          "internalType": "struct NFTAuction.AuctionItem[]",
          "name": "",
          "type": "tuple[]"
        }
      ],
      "stateMutability": "view",
      "type": "function"
    },
    {
      "inputs": [
        {
          "internalType": "uint256",
          "name": "",
          "type": "uint256"
        }
      ],
      "name": "idToAuctionItem",
      "outputs": [
        {
          "internalType": "uint256",
          "name": "itemId",
          "type": "uint256"
        },
        {
          "internalType": "address",
          "name": "nftContract",
          "type": "address"
        },
        {
          "internalType": "uint256",
          "name": "tokenId",
          "type": "uint256"
        },
        {
          "internalType": "address payable",
          "name": "seller",
          "type": "address"
        },
        {
          "internalType": "address payable",
          "name": "owner",
          "type": "address"
        },
        {
          "internalType": "address payable",
          "name": "highestBidder",
          "type": "address"
        },
        {
          "internalType": "uint256",
          "name": "highestBid",
          "type": "uint256"
        },
        {
          "internalType": "uint256",
          "name": "price",
          "type": "uint256"
        },
        {
          "internalType": "uint256",
          "name": "endTime",
          "type": "uint256"
        },
        {
          "internalType": "bool",
          "name": "ended",
          "type": "bool"
        }
      ],
      "stateMutability": "view",
      "type": "function"
    },
    {
      "inputs": [
        {
          "internalType": "uint256",
          "name": "itemId",
          "type": "uint256"
        }
      ],
      "name": "withhdraw",
      "outputs": [
        {
          "internalType": "bool",
          "name": "",
          "type": "bool"
        }
      ],
      "stateMutability": "nonpayable",
      "type": "function"
    }
  ],
  "bytecode": "0x608060405234801561001057600080fd5b506001600055600380546001600160a01b0319163317905561124e806100376000396000f3fe60806040526004361061007b5760003560e01c80635c42bfe91161004e5780635c42bfe9146100f5578063bcacf944146101d3578063d0e7a12814610203578063f064c32e1461021657600080fd5b8063202e37401461008057806332246e9f146100ab578063454a2ab3146100cd57806354d54e0a146100e0575b600080fd5b34801561008c57600080fd5b5061009561022b565b6040516100a291906110c2565b60405180910390f35b3480156100b757600080fd5b506100cb6100c63660046110aa565b61043b565b005b6100cb6100db3660046110aa565b6106b4565b3480156100ec57600080fd5b50610095610894565b34801561010157600080fd5b506101756101103660046110aa565b6005602081905260009182526040909120805460018201546002830154600384015460048501549585015460068601546007870154600888015460099098015496986001600160a01b0396871698959794871696908116959316939192909160ff168a565b604080519a8b526001600160a01b03998a1660208c01528a019790975294871660608901529286166080880152941660a086015260c085019390935260e08401929092526101008301919091521515610120820152610140016100a2565b3480156101df57600080fd5b506101f36101ee3660046110aa565b610a54565b60405190151581526020016100a2565b6100cb61021136600461104d565b610ad4565b34801561022257600080fd5b50610095610dae565b6060600061023860015490565b905060008060005b8381101561029b573360056000610258846001611179565b81526020810191909152604001600020600401546001600160a01b0316141561028957610286600184611179565b92505b80610293816111e7565b915050610240565b5060008267ffffffffffffffff8111156102c557634e487b7160e01b600052604160045260246000fd5b6040519080825280602002602001820160405280156102fe57816020015b6102eb610fd4565b8152602001906001900390816102e35790505b50905060005b8481101561043257336005600061031c846001611179565b81526020810191909152604001600020600401546001600160a01b0316141561042057600061034c826001611179565b6000818152600560208181526040928390208351610140810185528154815260018201546001600160a01b0390811693820193909352600282015494810194909452600381015482166060850152600481015482166080850152918201541660a0830152600681015460c0830152600781015460e08301526008810154610100830152600981015460ff16151561012083015285519293509185908790811061040557634e487b7160e01b600052603260045260246000fd5b602090810291909101015261041b600186611179565b945050505b8061042a816111e7565b915050610304565b50949350505050565b60008181526005602081905260409091206008810154600982015492820154600683015460038401546001850154600290950154939560ff16946001600160a01b0393841694929391821692911690428711156104d65760405162461bcd60e51b8152602060048201526014602482015273185d58dd1a5bdb881b9bdd081bdd995c881e595d60621b60448201526064015b60405180910390fd5b851561051c5760405162461bcd60e51b8152602060048201526015602482015274185d58dd1a5bdb88185b1c9958591e48195b991959605a1b60448201526064016104cd565b600088815260056020908152604091829020600901805460ff1916600117905581516001600160a01b03881681529081018690527fdaec4582d5d9595688c8c98545fdd1c696d41c6aeaeb636737e84ed2f5c00eda910160405180910390a16001600160a01b0383166108fc61059e605a610598886064610fb5565b90610fc8565b6040518115909202916000818181858888f193505050501580156105c6573d6000803e3d6000fd5b506003546001600160a01b03166108fc6105e6600a610598886064610fb5565b6040518115909202916000818181858888f1935050505015801561060e573d6000803e3d6000fd5b506040516323b872dd60e01b81523060048201526001600160a01b038681166024830152604482018390528316906323b872dd90606401600060405180830381600087803b15801561065f57600080fd5b505af1158015610673573d6000803e3d6000fd5b505050600089815260056020526040902060040180546001600160a01b0319166001600160a01b038816179055506002805460010190555050505050505050565b600081815260056020819052604090912060078101546006820154928201546008909201549092916001600160a01b0316903484111561074f5760405162461bcd60e51b815260206004820152603060248201527f6d73672076616c7565206d7573742062652067726561746572207468616e206f60448201526f7220657175616c20746f20707269636560801b60648201526084016104cd565b8042111561079f5760405162461bcd60e51b815260206004820152601f60248201527f61756374696f6e206973206f766572206e6f206d6f72652062696464696e670060448201526064016104cd565b8234116107e45760405162461bcd60e51b81526020600482015260136024820152720c4d2c840dcdee840d0d2ced040cadcdeeaced606b1b60448201526064016104cd565b82156108225760008581526004602090815260408083206001600160a01b03861684529091528120805485929061081c908490611179565b90915550505b60008581526005602081815260409283902091820180546001600160a01b03191633908117909155346006909301839055835189815291820152918201527fda0a18da71d8ebd145966339a728fc0d8ccc07c22870d561890d823c515dda6b9060600160405180910390a15050505050565b606060006108a160015490565b905060006108ae60025490565b6001546108bb91906111d0565b90506000808267ffffffffffffffff8111156108e757634e487b7160e01b600052604160045260246000fd5b60405190808252806020026020018201604052801561092057816020015b61090d610fd4565b8152602001906001900390816109055790505b50905060005b8481101561043257600060058161093e846001611179565b81526020810191909152604001600020600401546001600160a01b03161415610a4257600061096e826001611179565b6000818152600560208181526040928390208351610140810185528154815260018201546001600160a01b0390811693820193909352600282015494810194909452600381015482166060850152600481015482166080850152918201541660a0830152600681015460c0830152600781015460e08301526008810154610100830152600981015460ff161515610120830152855192935091859087908110610a2757634e487b7160e01b600052603260045260246000fd5b6020908102919091010152610a3d600186611179565b945050505b80610a4c816111e7565b915050610926565b60008181526004602090815260408083203384529091528120548015610acb57600083815260046020908152604080832033808552925280832083905551909183156108fc02918491818181858888f19350505050610acb5760009283526004602090815260408085203386529091528320555090565b50600192915050565b60026000541415610b275760405162461bcd60e51b815260206004820152601f60248201527f5265656e7472616e637947756172643a207265656e7472616e742063616c6c0060448201526064016104cd565b60026000556001600160801b038216610b825760405162461bcd60e51b815260206004820152601c60248201527f5072696365206d757374206265206174206c656173742031207765690000000060448201526064016104cd565b610b90600180546001019055565b6000610b9b60015490565b60408051610140810182528281526001600160a01b038816602082015290810186905233606082015260006080820181905260a0820181905260c08201526001600160801b03851660e08201529091506101008101610bfa8442611179565b815260006020918201819052838152600580835260409182902084518155928401516001840180546001600160a01b03199081166001600160a01b03938416179091558584015160028601556060860151600386018054831691841691909117905560808601516004808701805484169285169290921790915560a0870151938601805490921693831693909317905560c0850151600685015560e085015160078501556101008501516008850155610120909401516009909301805460ff191693151593909317909255516323b872dd60e01b8152339181019190915230602482015260448101869052908616906323b872dd90606401600060405180830381600087803b158015610d0c57600080fd5b505af1158015610d20573d6000803e3d6000fd5b5050505083856001600160a01b0316827f923b746e3df15c01f8cd20c7979093d30c1f87898b0cacbede809df6cae18b66336000888842610d619190611179565b604080516001600160a01b0395861681529390941660208401526001600160801b03919091168284015260608201526000608082015290519081900360a00190a450506001600055505050565b60606000610dbb60015490565b905060008060005b83811015610e1e573360056000610ddb846001611179565b81526020810191909152604001600020600301546001600160a01b03161415610e0c57610e09600184611179565b92505b80610e16816111e7565b915050610dc3565b5060008267ffffffffffffffff811115610e4857634e487b7160e01b600052604160045260246000fd5b604051908082528060200260200182016040528015610e8157816020015b610e6e610fd4565b815260200190600190039081610e665790505b50905060005b84811015610432573360056000610e9f846001611179565b81526020810191909152604001600020600301546001600160a01b03161415610fa3576000610ecf826001611179565b6000818152600560208181526040928390208351610140810185528154815260018201546001600160a01b0390811693820193909352600282015494810194909452600381015482166060850152600481015482166080850152918201541660a0830152600681015460c0830152600781015460e08301526008810154610100830152600981015460ff161515610120830152855192935091859087908110610f8857634e487b7160e01b600052603260045260246000fd5b6020908102919091010152610f9e600186611179565b945050505b80610fad816111e7565b915050610e87565b6000610fc18284611191565b9392505050565b6000610fc182846111b1565b6040518061014001604052806000815260200160006001600160a01b031681526020016000815260200160006001600160a01b0316815260200160006001600160a01b0316815260200160006001600160a01b031681526020016000815260200160008152602001600081526020016000151581525090565b60008060008060808587031215611062578384fd5b84356001600160a01b0381168114611078578485fd5b93506020850135925060408501356001600160801b038116811461109a578283fd5b9396929550929360600135925050565b6000602082840312156110bb578081fd5b5035919050565b602080825282518282018190526000919060409081850190868401855b8281101561116c57815180518552868101516001600160a01b0390811688870152868201518787015260608083015182169087015260808083015182169087015260a0808301519091169086015260c0808201519086015260e0808201519086015261010080820151908601526101209081015115159085015261014090930192908501906001016110df565b5091979650505050505050565b6000821982111561118c5761118c611202565b500190565b6000826111ac57634e487b7160e01b81526012600452602481fd5b500490565b60008160001904831182151516156111cb576111cb611202565b500290565b6000828210156111e2576111e2611202565b500390565b60006000198214156111fb576111fb611202565b5060010190565b634e487b7160e01b600052601160045260246000fdfea264697066735822122075f39574b22c35a0a0b77e0d8dacacb6ace1c35f7744eb6465ba383db024d80264736f6c63430008040033",
  "linkReferences": {},
  "deployedLinkReferences": {}
}