{
  "_format": "hh-sol-artifact-1",
  "contractName": "NFTMarket",
  "sourceName": "contracts/Market.sol",
  "abi": [
    {
      "inputs": [],
      "stateMutability": "nonpayable",
      "type": "constructor"
    },
    {
      "anonymous": false,
      "inputs": [
        {
          "indexed": true,
          "internalType": "uint256",
          "name": "itemId",
          "type": "uint256"
        },
        {
          "indexed": true,
          "internalType": "address",
          "name": "nftContract",
          "type": "address"
        },
        {
          "indexed": true,
          "internalType": "uint256",
          "name": "tokenId",
          "type": "uint256"
        },
        {
          "indexed": false,
          "internalType": "address",
          "name": "seller",
          "type": "address"
        },
        {
          "indexed": false,
          "internalType": "address",
          "name": "owner",
          "type": "address"
        },
        {
          "indexed": false,
          "internalType": "uint256",
          "name": "price",
          "type": "uint256"
        },
        {
          "indexed": false,
          "internalType": "bool",
          "name": "sold",
          "type": "bool"
        }
      ],
      "name": "MarketItemCreated",
      "type": "event"
    },
    {
      "inputs": [
        {
          "internalType": "address",
          "name": "nftContract",
          "type": "address"
        },
        {
          "internalType": "uint256",
          "name": "tokenId",
          "type": "uint256"
        },
        {
          "internalType": "uint256",
          "name": "price",
          "type": "uint256"
        }
      ],
      "name": "createMarketItem",
      "outputs": [],
      "stateMutability": "payable",
      "type": "function"
    },
    {
      "inputs": [
        {
          "internalType": "address",
          "name": "nftContract",
          "type": "address"
        },
        {
          "internalType": "uint256",
          "name": "itemId",
          "type": "uint256"
        }
      ],
      "name": "createMarketSale",
      "outputs": [],
      "stateMutability": "payable",
      "type": "function"
    },
    {
      "inputs": [],
      "name": "fetchItemsCreated",
      "outputs": [
        {
          "components": [
            {
              "internalType": "uint256",
              "name": "itemId",
              "type": "uint256"
            },
            {
              "internalType": "address",
              "name": "nftContract",
              "type": "address"
            },
            {
              "internalType": "uint256",
              "name": "tokenId",
              "type": "uint256"
            },
            {
              "internalType": "address payable",
              "name": "seller",
              "type": "address"
            },
            {
              "internalType": "address payable",
              "name": "owner",
              "type": "address"
            },
            {
              "internalType": "uint256",
              "name": "price",
              "type": "uint256"
            },
            {
              "internalType": "bool",
              "name": "sold",
              "type": "bool"
            }
          ],
          "internalType": "struct NFTMarket.MarketItem[]",
          "name": "",
          "type": "tuple[]"
        }
      ],
      "stateMutability": "view",
      "type": "function"
    },
    {
      "inputs": [],
      "name": "fetchMarketItems",
      "outputs": [
        {
          "components": [
            {
              "internalType": "uint256",
              "name": "itemId",
              "type": "uint256"
            },
            {
              "internalType": "address",
              "name": "nftContract",
              "type": "address"
            },
            {
              "internalType": "uint256",
              "name": "tokenId",
              "type": "uint256"
            },
            {
              "internalType": "address payable",
              "name": "seller",
              "type": "address"
            },
            {
              "internalType": "address payable",
              "name": "owner",
              "type": "address"
            },
            {
              "internalType": "uint256",
              "name": "price",
              "type": "uint256"
            },
            {
              "internalType": "bool",
              "name": "sold",
              "type": "bool"
            }
          ],
          "internalType": "struct NFTMarket.MarketItem[]",
          "name": "",
          "type": "tuple[]"
        }
      ],
      "stateMutability": "view",
      "type": "function"
    },
    {
      "inputs": [],
      "name": "fetchMyNFTs",
      "outputs": [
        {
          "components": [
            {
              "internalType": "uint256",
              "name": "itemId",
              "type": "uint256"
            },
            {
              "internalType": "address",
              "name": "nftContract",
              "type": "address"
            },
            {
              "internalType": "uint256",
              "name": "tokenId",
              "type": "uint256"
            },
            {
              "internalType": "address payable",
              "name": "seller",
              "type": "address"
            },
            {
              "internalType": "address payable",
              "name": "owner",
              "type": "address"
            },
            {
              "internalType": "uint256",
              "name": "price",
              "type": "uint256"
            },
            {
              "internalType": "bool",
              "name": "sold",
              "type": "bool"
            }
          ],
          "internalType": "struct NFTMarket.MarketItem[]",
          "name": "",
          "type": "tuple[]"
        }
      ],
      "stateMutability": "view",
      "type": "function"
    }
  ],
  "bytecode": "0x608060405234801561001057600080fd5b506001600055600380546001600160a01b03191633179055610d6a806100376000396000f3fe60806040526004361061004a5760003560e01c80630f08efe01461004f578063202e37401461007a57806358eb2df51461008f578063c23b139e146100a4578063f064c32e146100b7575b600080fd5b34801561005b57600080fd5b506100646100cc565b6040516100719190610c01565b60405180910390f35b34801561008657600080fd5b50610064610272565b6100a261009d366004610bcf565b610456565b005b6100a26100b2366004610ba6565b610695565b3480156100c357600080fd5b506100646108e2565b606060006100d960015490565b905060006100e660025490565b6001546100f39190610cec565b90506000808267ffffffffffffffff81111561011f57634e487b7160e01b600052604160045260246000fd5b60405190808252806020026020018201604052801561015857816020015b610145610b4e565b81526020019060019003908161013d5790505b50905060005b84811015610269576000600481610176846001610c95565b81526020810191909152604001600020600401546001600160a01b031614156102575760006101a6826001610c95565b600081815260046020818152604092839020835160e0810185528154815260018201546001600160a01b039081169382019390935260028201549481019490945260038101548216606085015291820154166080830152600581015460a0830152600681015460ff16151560c083015285519293509185908790811061023c57634e487b7160e01b600052603260045260246000fd5b6020908102919091010152610252600186610c95565b945050505b8061026181610d03565b91505061015e565b50949350505050565b6060600061027f60015490565b905060008060005b838110156102e257336004600061029f846001610c95565b81526020810191909152604001600020600401546001600160a01b031614156102d0576102cd600184610c95565b92505b806102da81610d03565b915050610287565b5060008267ffffffffffffffff81111561030c57634e487b7160e01b600052604160045260246000fd5b60405190808252806020026020018201604052801561034557816020015b610332610b4e565b81526020019060019003908161032a5790505b50905060005b84811015610269573360046000610363846001610c95565b81526020810191909152604001600020600401546001600160a01b03161415610444576000610393826001610c95565b600081815260046020818152604092839020835160e0810185528154815260018201546001600160a01b039081169382019390935260028201549481019490945260038101548216606085015291820154166080830152600581015460a0830152600681015460ff16151560c083015285519293509185908790811061042957634e487b7160e01b600052603260045260246000fd5b602090810291909101015261043f600186610c95565b945050505b8061044e81610d03565b91505061034b565b600260005414156104ae5760405162461bcd60e51b815260206004820152601f60248201527f5265656e7472616e637947756172643a207265656e7472616e742063616c6c0060448201526064015b60405180910390fd5b6002600055806105005760405162461bcd60e51b815260206004820152601c60248201527f5072696365206d757374206265206174206c656173742031207765690000000060448201526064016104a5565b61050e600180546001019055565b600061051960015490565b6040805160e0810182528281526001600160a01b0387811660208084018281528486018a8152336060870181815260006080890181815260a08a018e815260c08b018381528d8452600498899052928c90209a518b55955160018b0180546001600160a01b0319908116928c16929092179055945160028b0155915160038a0180548616918a16919091179055905188860180549094169716969096179091559051600586015592516006909401805460ff19169415159490941790935592516323b872dd60e01b81529182015230602482015260448101869052919250906323b872dd90606401600060405180830381600087803b15801561061b57600080fd5b505af115801561062f573d6000803e3d6000fd5b505060408051338152600060208201819052818301879052606082015290518693506001600160a01b038816925084917f045dfa01dcba2b36aba1d3dc4a874f4b0c5d2fbeb8d2c4b34a7d88c8d8f929d1919081900360800190a4505060016000555050565b600260005414156106e85760405162461bcd60e51b815260206004820152601f60248201527f5265656e7472616e637947756172643a207265656e7472616e742063616c6c0060448201526064016104a5565b60026000818155828152600460205260409020600581015491015461070c34610ac6565b61071582610ac6565b81341461078c576040805162461bcd60e51b81526020600482015260248101919091527f506c65617365207375626d6974207468652061736b696e67207072696365206960448201527f6e206f7264657220746f20636f6d706c6574652074686520707572636861736560648201526084016104a5565b6000838152600460205260409020600301546001600160a01b03166108fc6107c0605a6107ba346064610b0e565b90610b21565b6040518115909202916000818181858888f193505050501580156107e8573d6000803e3d6000fd5b506040516323b872dd60e01b8152306004820152336024820152604481018290526001600160a01b038516906323b872dd90606401600060405180830381600087803b15801561083757600080fd5b505af115801561084b573d6000803e3d6000fd5b505050600084815260046020819052604090912090810180546001600160a01b03191633179055600601805460ff191660011790555061088f600280546001019055565b6003546001600160a01b03166108fc6108ae600a6107ba346064610b0e565b6040518115909202916000818181858888f193505050501580156108d6573d6000803e3d6000fd5b50506001600055505050565b606060006108ef60015490565b905060008060005b8381101561095257336004600061090f846001610c95565b81526020810191909152604001600020600301546001600160a01b031614156109405761093d600184610c95565b92505b8061094a81610d03565b9150506108f7565b5060008267ffffffffffffffff81111561097c57634e487b7160e01b600052604160045260246000fd5b6040519080825280602002602001820160405280156109b557816020015b6109a2610b4e565b81526020019060019003908161099a5790505b50905060005b848110156102695733600460006109d3846001610c95565b81526020810191909152604001600020600301546001600160a01b03161415610ab4576000610a03826001610c95565b600081815260046020818152604092839020835160e0810185528154815260018201546001600160a01b039081169382019390935260028201549481019490945260038101548216606085015291820154166080830152600581015460a0830152600681015460ff16151560c0830152855192935091859087908110610a9957634e487b7160e01b600052603260045260246000fd5b6020908102919091010152610aaf600186610c95565b945050505b80610abe81610d03565b9150506109bb565b610b0b81604051602401610adc91815260200190565b60408051601f198184030181529190526020810180516001600160e01b031663f5b1bba960e01b179052610b2d565b50565b6000610b1a8284610cad565b9392505050565b6000610b1a8284610ccd565b80516a636f6e736f6c652e6c6f67602083016000808483855afa5050505050565b6040805160e081018252600080825260208201819052918101829052606081018290526080810182905260a0810182905260c081019190915290565b80356001600160a01b0381168114610ba157600080fd5b919050565b60008060408385031215610bb8578182fd5b610bc183610b8a565b946020939093013593505050565b600080600060608486031215610be3578081fd5b610bec84610b8a565b95602085013595506040909401359392505050565b602080825282518282018190526000919060409081850190868401855b82811015610c8857815180518552868101516001600160a01b039081168887015286820151878701526060808301518216908701526080808301519091169086015260a0808201519086015260c09081015115159085015260e09093019290850190600101610c1e565b5091979650505050505050565b60008219821115610ca857610ca8610d1e565b500190565b600082610cc857634e487b7160e01b81526012600452602481fd5b500490565b6000816000190483118215151615610ce757610ce7610d1e565b500290565b600082821015610cfe57610cfe610d1e565b500390565b6000600019821415610d1757610d17610d1e565b5060010190565b634e487b7160e01b600052601160045260246000fdfea26469706673582212207ac444412173d5a04bb6d17fa687dbafce501f8ae2c21dc761dec8235423639064736f6c63430008040033",
  "linkReferences": {},
  "deployedLinkReferences": {}
}